:100000000C942A000C943F000C943F000C943F0089
:100010000C943F000C943F000C943F000C943F0064
:100020000C943F000C943F000C943F000C943F0054
:100030000C943F000C943F000C943F000C943F0044
:100040000C943F000C943F000C943F000C943F0034
:100050000C943F0011241FBECFE5D8E0DEBFCDBF1A
:1000600010E0A0E6B0E0E0EDF5E002C005900D92F2
:10007000A038B107D9F70E9441000C94E6020C9415
:1000800000000E940B0165E080E00E947E0180E795
:1000900090E00E946B012FEF83ED90E321508040B0
:1000A0009040E1F700C000000E94B10168E670E0F6
:1000B00080E40E94910160E670E088E40E94910172
:1000C00068E670E080E40E94910147E061E080E032
:1000D0000E94A60160E670E088E40E94910140E081
:1000E00060E081E00E94A6012FEF81EE94E02150B4
:1000F00080409040E1F700C0000060E080E00E9496
:10010000B50147E061E080E00E94A601C0E05DC06B
:100110004C2F61E081E00E94A6012FEF80E792E082
:10012000215080409040E1F700C000006FEF6C0F5D
:1001300081E00E94B501C63051F467E081E00E9481
:10014000B50147E060E080E00E94A6010BC0C93025
:1001500049F467E080E00E94B50147E061E080E09B
:100160000E94A601CE3081F52CC04D2F61E081E0C8
:100170000E94A6012FEF80E792E02150804090403E
:10018000E1F700C0000061E06D0F81E00E94B50161
:10019000D93051F467E081E00E94B50147E060E0AA
:1001A00080E00E94A6010BC0D63049F467E080E0F1
:1001B0000E94B50147E061E080E00E94A601D150B5
:1001C00001C0DFE0D111D1CFCF5FCF3008F4A0CF95
:1001D00098CFCF93C82F40E065E082E00E945D0297
:1001E00040E066E082E00E945D026C2F83E00E94A6
:1001F000D40241E067E082E00E945D0283EF91E07B
:100200000197F1F700C0000040E067E082E00E9443
:100210005D02CF91089561E083E00E94320241E0E7
:1002200065E082E00E94BB0141E066E082E00E945E
:10023000BB0141E067E082E00E94BB018DE292E2F7
:100240000197F1F700C000008CE30E94E90089EFFC
:1002500090E00197F1F700C000008CE00E94E900F7
:1002600089EF90E00197F1F700C0000081E00E9463
:10027000E90083EF91E00197F1F700C0000086E00C
:100280000E94E90089EF90E00197F1F700C00000BB
:100290000895CF93C82F41E065E082E00E945D029F
:1002A00040E066E082E00E945D026C2F83E00E94E5
:1002B000D40241E067E082E00E945D0283EF91E0BA
:1002C0000197F1F700C0000040E067E082E00E9483
:1002D0005D02CF9108950F931F93CF938C01C0E0DF
:1002E00003C00E944901CF5FF801EC0FF11D80812E
:1002F0008111F7CFCF911F910F910895823080F433
:10030000603170F4882319F0813031F0089580E86D
:10031000860F0E94E900089580EC860F0E94E90094
:1003200008950F931F93CF938B010E94E900C0E0C3
:1003300007C0F801EC0FF11D80810E944901CF5FD9
:10034000C830B8F3CF911F910F910895CF93C82F64
:10035000862F642F0E947E018C2F0E944901CF912D
:10036000089581E00E94E90008950E947E0180E2E4
:100370000E9449010895843008F073C0683008F085
:1003800070C0442319F04130C9F10895813091F0D3
:1003900028F08230D9F0833029F108952AB381E022
:1003A00090E002C0880F991F6A95E2F7809582233A
:1003B0008ABB089527B381E090E002C0880F991F9F
:1003C0006A95E2F78095822387BB089524B381E084
:1003D00090E002C0880F991F6A95E2F7809582230A
:1003E00084BB089521B381E090E002C0880F991F7B
:1003F0006A95E2F78095822381BB0895813089F068
:1004000028F08230C9F0833011F108952AB381E0D9
:1004100090E002C0880F991F6A95E2F7822B8ABB91
:10042000089527B381E090E002C0880F991F6A9574
:10043000E2F7822B87BB089524B381E090E002C0ED
:10044000880F991F6A95E2F7822B84BB089521B328
:1004500081E090E002C0880F991F6A95E2F7822B35
:1004600081BB0895843040F5662319F0613089F02E
:100470000895813041F028F0823039F0833039F02E
:1004800008951ABA089517BA089514BA089511BABA
:100490000895813049F028F0823049F0833051F0DE
:1004A00008958FEF8ABB08958FEF87BB08958FEF74
:1004B00084BB08958FEF81BB0895843008F073C02A
:1004C000683008F070C0442319F04130C9F1089534
:1004D000813091F028F08230D9F0833029F10895ED
:1004E0002BB381E090E002C0880F991F6A95E2F774
:1004F000809582238BBB089528B381E090E002C0F1
:10050000880F991F6A95E2F78095822388BB08952A
:1005100025B381E090E002C0880F991F6A95E2F749
:100520008095822385BB089522B381E090E002C0CC
:10053000880F991F6A95E2F78095822382BB089500
:10054000813089F028F08230C9F0833011F10895AC
:100550002BB381E090E002C0880F991F6A95E2F703
:10056000822B8BBB089528B381E090E002C0880FF6
:10057000991F6A95E2F7822B88BB089525B381E025
:1005800090E002C0880F991F6A95E2F7822B85BB25
:10059000089522B381E090E002C0880F991F6A9508
:1005A000E2F7822B82BB0895843078F4813041F0E9
:1005B00028F0823039F0833039F008956BBB08950C
:1005C00068BB089565BB089562BB0895F894FFCF9A
:1005D000040E1F1F15040E0A04040A15150E11112E
:1005E00020456E67202F204D6F7374616661000097
:00000001FF
