S00B00004C43442E7372656346
S11300000C942A000C943F000C943F000C943F0085
S11300100C943F000C943F000C943F000C943F0060
S11300200C943F000C943F000C943F000C943F0050
S11300300C943F000C943F000C943F000C943F0040
S11300400C943F000C943F000C943F000C943F0030
S11300500C943F0011241FBECFE5D8E0DEBFCDBF16
S113006010E0A0E6B0E0ECE2F7E002C005900D92EB
S1130070AE37B107D9F70E946D030C9494030C9426
S11300800000843008F073C0683008F070C0442366
S113009019F04130C9F10895813091F028F082308F
S11300A0D9F0833029F108952AB381E090E002C0A9
S11300B0880F991F6A95E2F7809582238ABB089579
S11300C027B381E090E002C0880F991F6A95E2F798
S11300D08095822387BB089524B381E090E002C019
S11300E0880F991F6A95E2F78095822384BB08954F
S11300F021B381E090E002C0880F991F6A95E2F76E
S11301008095822381BB0895813089F028F0823064
S1130110C9F0833011F108952AB381E090E002C060
S1130120880F991F6A95E2F7822B8ABB089527B33B
S113013081E090E002C0880F991F6A95E2F7822B54
S113014087BB089524B381E090E002C0880F991F13
S11301506A95E2F7822B84BB089521B381E090E095
S113016002C0880F991F6A95E2F7822B81BB08951C
S1130170843008F073C0683008F070C0442319F06C
S11301804130C9F10895813091F028F08230D9F0DE
S1130190833029F108952BB381E090E002C0880FE9
S11301A0991F6A95E2F7809582238BBB089528B343
S11301B081E090E002C0880F991F6A95E2F780956C
S11301C0822388BB089525B381E090E002C0880FA4
S11301D0991F6A95E2F78095822385BB089522B31F
S11301E081E090E002C0880F991F6A95E2F780953C
S11301F0822382BB0895813089F028F08230C9F0CF
S1130200833011F108952BB381E090E002C0880F90
S1130210991F6A95E2F7822B8BBB089528B381E07E
S113022090E002C0880F991F6A95E2F7822B88BB81
S1130230089525B381E090E002C0880F991F6A9564
S1130240E2F7822B85BB089522B381E090E002C0DF
S1130250880F991F6A95E2F7822B82BB0895CF938A
S1130260DF93843058F5D42FC82F6623A9F061306A
S113027029F560E00E9441004D2F61E08C2F0E941F
S113028041004D2F62E08C2F0E9441004D2F63E00E
S11302908C2F0E94410012C064E00E9441004D2F47
S11302A065E08C2F0E9441004D2F66E08C2F0E9448
S11302B041004D2F67E08C2F0E944100DF91CF91C8
S11302C00895843008F04FC0662341F1613009F08D
S11302D04AC04F70813069F028F0823089F0833051
S11302E0B1F008958BB3807F8BBB8BB3482B4BBB92
S11302F0089588B3807F88BB88B3482B48BB089592
S113030085B3807F85BB85B3482B45BB089582B3F5
S1130310807F82BB82B3482B42BB08954295407FC5
S1130320813069F028F0823089F08330B1F008958B
S11303308BB38F708BBB8BB3482B4BBB089588B3A7
S11303408F7088BB88B3482B48BB089585B38F70E2
S113035085BB85B3482B45BB089582B38F7082BBA0
S113036082B3482B42BB0895CF93C82F40E066E088
S113037080E00E94B80040E065E080E00E94B800A0
S11303804C2F42954F7061E080E00E94610141E092
S113039064E080E00E94B80083EF91E00197F1F7F8
S11303A000C0000040E064E080E00E94B80083EFF9
S11303B091E00197F1F700C0000040E066E080E0C2
S11303C00E94B80040E065E080E00E94B8004C2F35
S11303D061E080E00E94610141E064E080E00E940D
S11303E0B80083EF91E00197F1F700C0000040E00E
S11303F064E080E00E94B80083EF91E00197F1F798
S113040000C00000CF910895CF93C82F41E066E06B
S113041080E00E94B80040E065E080E00E94B800FF
S11304204C2F42954F7061E080E00E94610141E0F1
S113043064E080E00E94B80083EF91E00197F1F757
S113044000C0000040E064E080E00E94B80083EF58
S113045091E00197F1F700C0000041E066E080E020
S11304600E94B80040E065E080E00E94B8004C2F94
S113047061E080E00E94610141E064E080E00E946C
S1130480B80083EF91E00197F1F700C0000040E06D
S113049064E080E00E94B80083EF91E00197F1F7F7
S11304A000C00000CF9108950F931F93CF938C0148
S11304B0C0E003C00E940402CF5FF801EC0FF11DFD
S11304C080818111F7CFCF911F910F9108958230D0
S11304D0E0F46031D0F4882319F0813061F008959C
S11304E080E8860F0E94B40187EA91E60197F1F74C
S11304F000C00000089580EC860F0E94B40187EAD2
S113050091E60197F1F700C0000008950F931F933F
S1130510CF938B0190E00896880F880F880F0E9474
S1130520B401C0E007C0F801EC0FF11D80810E9406
S11305300402CF5FC830B8F387EA91E60197F1F778
S113054000C00000CF911F910F910895CF93C82F41
S1130550862F642F0E9467028C2F0E940402CF9181
S1130560089581E00E94B40183EF91E00197F1F7CF
S113057000C0000082E00E94B40183EF91E0019783
S1130580F1F700C00000089541E061E080E00E94BE
S11305902F0141E066E080E00E94410041E065E017
S11305A080E00E94410041E064E080E00E9441005C
S11305B08DE292E20197F1F700C0000082E00E9410
S11305C0B40189EF90E00197F1F700C0000088E2E0
S11305D00E94B40189EF90E00197F1F700C0000098
S11305E08CE00E94B40189EF90E00197F1F700C01C
S11305F000000E94B10283EF91E00197F1F700C07F
S1130600000086E00E94B40189EF90E00197F1F7C1
S113061000C0000008950E94670280E20E94040264
S11306200895CF93DF93D82FC0E008C06C2F8D2F8F
S11306300E94670280E20E940402CF5FC031B0F3DF
S1130640DF91CF9108950F931F93CF93DF938C0184
S1130650D62FC0E014C06C2F8D2F0E946702C801F2
S11306600E9454022FEF84E39CE02150804090408C
S1130670E1F700C000008D2F0E941103CF5FC0314D
S113068050F3DF91CF911F910F9108950F931F9312
S1130690CF93DF93082FD62FC42F122F17C06C2FA0
S11306A08D2F0E9467024C2F6D2F802F0E94A6026F
S11306B02FEF81EE94E0215080409040E1F700C09C
S11306C000006C2F8D2F0E940B03CF5F1C1738F78F
S11306D0DF91CF911F910F9108950E94C40268E6A3
S11306E070E080E40E9486022FEF80E792E02150C0
S11306F080409040E1F700C0000060E670E088E4CC
S11307000E94860260E080E790E00E9423032FE0CD
S113071040E061E080E00E9446032FE040E060E0BA
S10F072081E00E944603EECFF894FFCF66
S113072C000E1F1F1F0E000000000A00110E000017
S111073C4D6F73746166612053616D697200C4
S9030000FC
