S02100005265616C54696D65436C6F636B5F776974685F54696D6572322E7372656357
S11300000C942A000C9447000C9447000C9447006D
S11300100C9447000C9429060C9447000C94470058
S11300200C9447000C9447000C9447000C94470030
S11300300C9447000C9447000C9447000C94470020
S11300400C9447000C9447000C9447000C94470010
S11300500C94470011241FBECFE5D8E0DEBFCDBF0E
S113006010E0A0E6B0E0EEE2FDE002C005900D92E3
S1130070A43DB107D9F720E0A4EDB0E001C01D9282
S1130080AA3DB207E1F70E94EE050C9495060C9484
S11300900000843008F073C0683008F070C0442356
S11300A019F04130C9F10895813091F028F082307F
S11300B0D9F0833029F108952AB381E090E002C099
S11300C0880F991F6A95E2F7809582238ABB089569
S11300D027B381E090E002C0880F991F6A95E2F788
S11300E08095822387BB089524B381E090E002C009
S11300F0880F991F6A95E2F78095822384BB08953F
S113010021B381E090E002C0880F991F6A95E2F75D
S11301108095822381BB0895813089F028F0823054
S1130120C9F0833011F108952AB381E090E002C050
S1130130880F991F6A95E2F7822B8ABB089527B32B
S113014081E090E002C0880F991F6A95E2F7822B44
S113015087BB089524B381E090E002C0880F991F03
S11301606A95E2F7822B84BB089521B381E090E085
S113017002C0880F991F6A95E2F7822B81BB08950C
S1130180843008F073C0683008F070C0442319F05C
S11301904130C9F10895813091F028F08230D9F0CE
S11301A0833029F108952BB381E090E002C0880FD9
S11301B0991F6A95E2F7809582238BBB089528B333
S11301C081E090E002C0880F991F6A95E2F780955C
S11301D0822388BB089525B381E090E002C0880F94
S11301E0991F6A95E2F78095822385BB089522B30F
S11301F081E090E002C0880F991F6A95E2F780952C
S1130200822382BB0895813089F028F08230C9F0BE
S1130210833011F108952BB381E090E002C0880F80
S1130220991F6A95E2F7822B8BBB089528B381E06E
S113023090E002C0880F991F6A95E2F7822B88BB71
S1130240089525B381E090E002C0880F991F6A9554
S1130250E2F7822B85BB089522B381E090E002C0CF
S1130260880F991F6A95E2F7822B82BB0895843028
S113027078F4813041F028F0823039F0833039F05D
S113028008956BBB089568BB089565BB089562BB70
S11302900895843008F05FC0683008F05CC0813095
S11302A0E1F030F0823071F1833009F440C053C082
S11302B049B381E090E09C01062E02C0220F331F57
S11302C00A94E2F7842F90E08223932302C0969548
S11302D087956A95E2F7982F3EC046B381E090E097
S11302E09C01062E02C0220F331F0A94E2F7842FCA
S11302F090E08223932302C0969587956A95E2F74E
S1130300982F29C043B381E090E09C01062E02C0DF
S1130310220F331F0A94E2F7842F90E08223932361
S113032002C0969587956A95E2F7982F14C040B35A
S113033081E090E09C01062E02C0220F331F0A9434
S1130340E2F7842F90E08223932302C09695879549
S11303506A95E2F7982F892F0895843060F4683005
S113036050F4442329F0413031F40E94C000089530
S113037040E00E94C0000895CF93DF93843058F585
S1130380D42FC82F6623A9F0613029F560E00E94BC
S113039049004D2F61E08C2F0E9449004D2F62E0EF
S11303A08C2F0E9449004D2F63E08C2F0E9449003E
S11303B012C064E00E9449004D2F65E08C2F0E941A
S11303C049004D2F66E08C2F0E9449004D2F67E0B5
S11303D08C2F0E944900DF91CF910895843008F05A
S11303E04FC0662341F1613009F04AC04F7081303B
S11303F069F028F0823089F08330B1F008958BB32E
S1130400807F8BBB8BB3482B4BBB089588B3807F15
S113041088BB88B3482B48BB089585B3807F85BBD0
S113042085B3482B45BB089582B3807F82BB82B3DA
S1130430482B42BB08954295407F813069F028F0F3
S1130440823089F08330B1F008958BB38F708BBB09
S11304508BB3482B4BBB089588B38F7088BB88B38C
S1130460482B48BB089585B38F7085BB85B3482B53
S113047045BB089582B38F7082BB82B3482B42BBC5
S1130480089541E063E081E00E94490041E064E0B6
S113049081E00E94490041E065E081E00E9449005A
S11304A041E066E081E00E94490040E060E081E0D4
S11304B00E94490040E061E081E00E94490040E080
S11304C062E081E00E94490041E060E081E00E9436
S11304D0AD0141E061E081E00E94AD0141E062E0F4
S11304E081E00E94AD010895EF92FF920F931F9354
S11304F0CF93DF93CDB7DEB72C970FB6F894DEBF5A
S11305000FBECDBF8CE0E0E6F0E0DE011196019075
S11305100D928A95E1F7EE24EA94F12C3AC041E079
S113052063E081E00E94C00041E064E081E00E9459
S1130530C00041E065E081E00E94C00041E066E067
S113054081E00E94C00040E063E06F0D81E00E9402
S1130550C00010E019C0612F81E00E944901082FFA
S1130560811111C08F2D90E0FC01EE0FFF1FE80FE9
S1130570F91F81E090E08C0F9D1FE80FF91FE10F38
S1130580F11DE08003C01F5F133028F3002321F026
S1130590F39493E09F1518F68E2D2C960FB6F894CD
S11305A0DEBF0FBECDBFDF91CF911F910F91FF90A2
S11305B0EF900895CF93C82F40E067E080E00E9459
S11305C0C00040E066E080E00E94C0004C2F4295ED
S11305D04F7061E080E00E94EE0141E065E080E060
S11305E00E94C00083EF91E00197F1F700C0000082
S11305F040E065E080E00E94C00083EF91E0019755
S1130600F1F700C0000040E067E080E00E94C00015
S113061040E066E080E00E94C0004C2F61E080E092
S11306200E94EE0141E065E080E00E94C00083EF9B
S113063091E00197F1F700C0000040E065E080E040
S11306400E94C00083EF91E00197F1F700C0000021
S1130650CF910895CF93C82F41E067E080E00E94D6
S1130660C00040E066E080E00E94C0004C2F42954C
S11306704F7061E080E00E94EE0141E065E080E0BF
S11306800E94C00083EF91E00197F1F700C00000E1
S113069040E065E080E00E94C00083EF91E00197B4
S11306A0F1F700C0000041E067E080E00E94C00074
S11306B040E066E080E00E94C0004C2F61E080E0F2
S11306C00E94EE0141E065E080E00E94C00083EFFB
S11306D091E00197F1F700C0000040E065E080E0A0
S11306E00E94C00083EF91E00197F1F700C0000081
S11306F0CF9108950F931F93CF938C01C0E003C053
S11307000E942A03CF5FF801EC0FF11D8081811153
S1130710F7CFCF911F910F9108958230E0F46031AB
S1130720D0F4882319F0813061F0089580E8860FB1
S11307300E94DA0287EA91E60197F1F700C000000F
S1130740089580EC860F0E94DA0287EA91E6019709
S1130750F1F700C00000089581E00E94DA0283EFFF
S113076091E00197F1F700C0000082E00E94DA02F4
S113077083EF91E00197F1F700C00000089541E094
S113078061E080E00E94BC0141E067E080E00E94FB
S1130790490041E066E080E00E94490041E065E0F4
S11307A080E00E9449008DE292E20197F1F700C0D7
S11307B0000082E00E94DA0289EF90E00197F1F7ED
S11307C000C0000088E20E94DA0289EF90E00197FD
S11307D0F1F700C000008CE00E94DA0289EF90E09B
S11307E00197F1F700C000000E94AC0383EF91E091
S11307F00197F1F700C0000086E00E94DA0289EF59
S113080090E00197F1F700C000000895CF930E9493
S1130810BF030E9441020E947D0683E00E943A06C3
S1130820C0E006C041E06C2F82E00E944900CF5F27
S1130830C630C0F3CF910895CF93DF930E94740222
S1130840C82F8F3FD9F30E942A032FEF80E792E04D
S1130850215080409040E1F700C000000E947402E3
S1130860D82F8F3FD9F30E942A032FEF80E792E01D
S1130870215080409040E1F700C000002C2F30E070
S113088020533109220F822F880F880F280F822FBF
S11308908D0F8053DF91CF9108950E94AC038CE8B3
S11308A090E00E947A0368E080E00E948D032FEFBD
S11308B080E792E0215080409040E1F700C00000C2
S11308C00E941C048093D4000E94AC0387E990E04A
S11308D00E947A036AE080E00E948D032FEF80E794
S11308E092E0215080409040E1F700C000000E9457
S11308F01C048093D5000E94AC0384EA90E00E941B
S11309007A036AE080E00E948D032FEF80E792E093
S1130910215080409040E1F700C000000E941C0478
S11309208093D6000E94AC0381EB90E00E947A038E
S113093060E081E00E948D038CEB90E00E947A03DA
S11309400895CF9340E060E082E00E94C00041E05F
S113095061E082E00E94C00041E062E082E00E9427
S1130960C00041E063E082E00E94C00041E064E036
S113097082E00E94C00041E065E082E00E94C00085
S11309806091D600CDEC6C9F812D112486958695BF
S11309908695880F982F990F990F890F681B83E00C
S11309A00E944E068FEC97E00197F1F700C000001B
S11309B041E060E082E00E94C00040E061E082E04B
S11309C00E94C00041E062E082E00E94C00041E079
S11309D063E082E00E94C00041E064E082E00E94A3
S11309E0C00041E065E082E00E94C0006091D60052
S11309F06C9F612D112466956695669583E00E942F
S1130A004E068FEC97E00197F1F700C0000041E03B
S1130A1060E082E00E94C00041E061E082E00E9468
S1130A20C00040E062E082E00E94C00041E063E078
S1130A3082E00E94C00041E064E082E00E94C000C5
S1130A4041E065E082E00E94C0006091D5006C9FA7
S1130A50812D1124869586958695880F982F990F58
S1130A60990F890F681B83E00E944E068FEC97E074
S1130A700197F1F700C0000041E060E082E00E94CD
S1130A80C00041E061E082E00E94C00041E062E019
S1130A9082E00E94C00040E063E082E00E94C00067
S1130AA041E064E082E00E94C00041E065E082E051
S1130AB00E94C0006091D5006C9F612D1124669541
S1130AC06695669583E00E944E068FEC97E0019749
S1130AD0F1F700C0000041E060E082E00E94C00045
S1130AE041E061E082E00E94C00041E062E082E017
S1130AF00E94C00041E063E082E00E94C00040E048
S1130B0064E082E00E94C00041E065E082E00E946F
S1130B10C0006091D4006C9F812D11248695869528
S1130B208695880F982F990F990F890F681B83E07A
S1130B300E944E068FEC97E00197F1F700C0000089
S1130B4041E060E082E00E94C00041E061E082E0B8
S1130B500E94C00041E062E082E00E94C00041E0E7
S1130B6063E082E00E94C00041E064E082E00E9411
S1130B70C00040E065E082E00E94C0006091D400C3
S1130B806C9F612D112466956695669583E00E949D
S1130B904E068FEC97E00197F1F700C00000CF916B
S1130BA008958091D6008C3339F41092D600809148
S1130BB0D5008F5F8093D5008091D5008C3339F4B4
S1130BC01092D5008091D4008F5F8093D4008091DF
S1130BD0D400883111F41092D40008950E940604C0
S1130BE081EB90E00E947A0360E081E00E948D0333
S1130BF08CEB90E00E947A030E9474028093D900E7
S1130C008F3F11F1813319F40E944D041DC00E94DD
S1130C10AC0386EC90E00E947A032FEF89E698E11A
S1130C20215080409040E1F700C000000E94AC03D6
S1130C3081EB90E00E947A0360E081E00E948D03E2
S1130C408CEB90E00E947A030E94A1040E94D105DB
S1130C50D3CF1F920F920FB60F9211248F938091CE
S1130C60D6008F5F8093D6008F910F900FBE0F90A8
S1130C701F901895813049F028F0823049F0833074
S1130C8051F008958FEF8ABB08958FEF87BB0895C5
S1130C908FEF84BB08958FEF81BB0895CF93DF93CB
S1130CA0CDB7DEB760970FB6F894DEBF0FBECDBFE9
S1130CB090E1ECE6F0E0DE01119601900D929A9538
S1130CC0E1F76A3050F4E1E0F0E0EC0FFD1FE60FCD
S1130CD0F11D60810E94370103C060E00E9437016A
S1130CE060960FB6F894DEBF0FBECDBFDF91CF91F3
S1130CF008958FB780688FBF089582B5886082BDDC
S1130D0085B5877F85BD85B58F7B85BD85B58160BC
S1130D1085BD85B58D7F85BD85B5846085BD89B765
S1110D20806489BF0E9479060895F894FFCF7D
S1130D2E3132333435363738392A30233F065B4F68
S1130D3E666D7D077F6F777C395E7971C0F9A4B0DB
S1130D4E999282F880908883C6A1868E486F7572B8
S1130D5E73203D202D2D004D696E75746573203DF5
S1130D6E202D2D005365636F6E6473203D202D2D51
S1130D7E005072657373203120544F0053657420F4
S1130D8E436C6F636B0057726F6E672043686F69B5
S1070D9E6365000085
S9030000FC
