:100000000C942A000C943F000C943F000C943F0089
:100010000C943F000C943F000C943F000C943F0064
:100020000C943F000C943F000C943F000C943F0054
:100030000C943F000C943F000C943F000C943F0044
:100040000C943F000C943F000C943F000C943F0034
:100050000C943F0011241FBECFE5D8E0DEBFCDBF1A
:1000600010E0A0E6B0E0EAEDF2E002C005900D92EB
:10007000A036B107D9F70E9441000C946B010C9493
:10008000000061E082E00E94620060E083E00E9484
:100090006200C0E014C04C2F61E082E00E94660064
:1000A0004C2F60E083E00E9466002FEF89E698E124
:1000B000215080409040E1F700C00000CF5FCA307F
:1000C00050F3E7CF41E00E94E60008954A3018F46B
:1000D0000E941801089540E00E941801089584309C
:1000E00008F073C0683008F070C0442319F0413044
:1000F000C9F10895813091F028F08230D9F0833031
:1001000029F108952AB381E090E002C0880F991F79
:100110006A95E2F7809582238ABB089527B381E030
:1001200090E002C0880F991F6A95E2F780958223BC
:1001300087BB089524B381E090E002C0880F991F27
:100140006A95E2F78095822384BB089521B381E00C
:1001500090E002C0880F991F6A95E2F7809582238C
:1001600081BB0895813089F028F08230C9F0833056
:1001700011F108952AB381E090E002C0880F991F21
:100180006A95E2F7822B8ABB089527B381E090E05D
:1001900002C0880F991F6A95E2F7822B87BB0895EA
:1001A00024B381E090E002C0880F991F6A95E2F7BE
:1001B000822B84BB089521B381E090E002C0880FB8
:1001C000991F6A95E2F7822B81BB0895CF93DF9345
:1001D000843058F5D42FC82F6623A9F0613029F553
:1001E00060E00E946F004D2F61E08C2F0E946F0035
:1001F0004D2F62E08C2F0E946F004D2F63E08C2FFB
:100200000E946F0012C064E00E946F004D2F65E0F5
:100210008C2F0E946F004D2F66E08C2F0E946F0084
:100220004D2F67E08C2F0E946F00DF91CF910895D2
:10023000843008F04FC0662341F1613009F04AC0B4
:100240004F70813069F028F0823089F08330B1F04E
:1002500008958BB3807F8BBB8BB3482B4BBB08952A
:1002600088B3807F88BB88B3482B48BB089585B38B
:10027000807F85BB85B3482B45BB089582B3807FC3
:1002800082BB82B3482B42BB08954295407F8130A8
:1002900069F028F0823089F08330B1F008958BB393
:1002A0008F708BBB8BB3482B4BBB089588B38F707B
:1002B00088BB88B3482B48BB089585B38F7085BB36
:1002C00085B3482B45BB089582B38F7082BB82B340
:0A02D000482B42BB0895F894FFCFBD
:00000001FF
