S0140000536576656E5365676D656E742E737265633C
S11300000C942A000C943F000C943F000C943F0085
S11300100C943F000C943F000C943F000C943F0060
S11300200C943F000C943F000C943F000C943F0050
S11300300C943F000C943F000C943F000C943F0040
S11300400C943F000C943F000C943F000C943F0030
S11300500C943F0011241FBECFE5D8E0DEBFCDBF16
S113006010E0A0E6B0E0E8E0F4E002C005900D92F4
S1130070A038B107D9F70E9441000C9402020C94F5
S1130080000082E00E947B0067E083E00E94610040
S1130090C0E067E083E00E947400811101C0CF5F7B
S11300A0CA3008F0C0E06C2F82E00E948F002FE776
S11300B08AE196E0215080409040E1F700C00000C2
S11300C0E8CFCF93DF93843060F4683050F4D62FB8
S11300D0C82F40E00E94BA0041E06D2F8C2F0E948F
S11300E0F301DF91CF910895843020F4683010F447
S11300F00E94BA010895813049F028F0823049F015
S1130100833051F008958FEF8ABB08958FEF87BB3A
S113011008958FEF84BB08958FEF81BB0895CF932B
S1130120DF93CDB7DEB760970FB6F894DEBF0FBE8E
S1130130CDBF90E1E0E6F0E0DE01119601900D9272
S11301409A95E1F7603150F4E1E0F0E0EC0FFD1F27
S1130150E60FF11D60810E94A80103C060E00E94C7
S1130160A80160960FB6F894DEBF0FBECDBFDF9135
S1130170CF910895843008F073C0683008F070C0DF
S1130180442319F04130C9F10895813091F028F0E9
S11301908230D9F0833029F108952AB381E090E0C8
S11301A002C0880F991F6A95E2F7809582238ABB63
S11301B0089527B381E090E002C0880F991F6A95E3
S11301C0E2F78095822387BB089524B381E090E011
S11301D002C0880F991F6A95E2F78095822384BB39
S11301E0089521B381E090E002C0880F991F6A95B9
S11301F0E2F78095822381BB0895813089F028F04D
S11302008230C9F0833011F108952AB381E090E07F
S113021002C0880F991F6A95E2F7822B8ABB089562
S113022027B381E090E002C0880F991F6A95E2F736
S1130230822B87BB089524B381E090E002C0880F2D
S1130240991F6A95E2F7822B84BB089521B381E05C
S113025090E002C0880F991F6A95E2F7822B81BB58
S11302600895843008F073C0683008F070C04423E7
S113027019F04130C9F10895813091F028F08230AD
S1130280D9F0833029F108952BB381E090E002C0C6
S1130290880F991F6A95E2F7809582238BBB089596
S11302A028B381E090E002C0880F991F6A95E2F7B5
S11302B08095822388BB089525B381E090E002C035
S11302C0880F991F6A95E2F78095822385BB08956C
S11302D022B381E090E002C0880F991F6A95E2F78B
S11302E08095822382BB0895813089F028F0823082
S11302F0C9F0833011F108952BB381E090E002C07E
S1130300880F991F6A95E2F7822B8BBB089528B357
S113031081E090E002C0880F991F6A95E2F7822B72
S113032088BB089525B381E090E002C0880F991F2F
S11303306A95E2F7822B85BB089522B381E090E0B1
S113034002C0880F991F6A95E2F7822B82BB089539
S1130350843078F4813041F028F0823039F08330F1
S113036039F008956BBB089568BB089565BB089583
S113037062BB08958430A8F5683098F5813089F01F
S113038028F08230C9F0833011F12BC029B381E009
S113039090E002C0880F991F6A95E2F7922F982384
S11303A020C026B381E090E002C0880F991F6A95AF
S11303B0E2F7922F982315C023B381E090E002C0A6
S11303C0880F991F6A95E2F7922F98230AC020B3E9
S11303D081E090E002C0880F991F6A95E2F7922F9E
S11303E09823892F0895843060F4683050F44423AE
S11303F029F0413031F40E943101089540E00E9417
S10B040031010895F894FFCFC7
S11304083F065B4F666D7D077F6F777C395E797138
S1130418C0F9A4B0999282F880908883C6A1868E88
S9030000FC
