:100000000C942A000C9434000C9434000C943400AA
:100010000C9434000C9434000C9434000C94340090
:100020000C9434000C9434000C9434000C94340080
:100030000C9434000C9434000C9434000C94340070
:100040000C9434000C9434000C9434000C94340060
:100050000C94340011241FBECFE5D8E0DEBFCDBF25
:100060000E9436000C945F000C94000060E080E079
:1000700090E00E944B0061E081E090E00E944B0024
:1000800062E082E090E00E944B0063E083E090E059
:100090000E944B00FFCF8EBB9FBB6DBB8CB38460B7
:1000A0008CBB8CB382608CBB2FEF84E39CE021502F
:1000B00080409040E1F700C000008CB30895F894B0
:0200C000FFCF70
:00000001FF
