:100000000C942A000C9434000C9434000C943400AA
:100010000C9434000C9434000C9434000C94340090
:100020000C9434000C9434000C9434000C94340080
:100030000C9434000C9434000C9434000C94340070
:100040000C9434000C9434000C9434000C94340060
:100050000C94340011241FBECFE5D8E0DEBFCDBF25
:100060000E9436000C94E9010C94000062E082E0EA
:100070000E94590063E082E00E946C00C0E001C071
:10008000C0E062E082E00E945200811108C0C1110C
:1000900006C063E082E00E947400C1E0F2CF8823D2
:1000A00079F3EFCF843020F4683010F40E946901B6
:1000B0000895CF93DF93843060F4683050F4D62FE6
:1000C000C82F40E00E947B0041E06D2F8C2F0E94E2
:1000D000DA01DF91CF910895843028F4683018F464
:1000E00041E00E947B000895843020F4683010F4D1
:1000F0000E94A2010895843008F073C0683008F0AF
:1001000070C0442319F04130C9F10895813091F055
:1001100028F08230D9F0833029F108952AB381E0A4
:1001200090E002C0880F991F6A95E2F780958223BC
:100130008ABB089527B381E090E002C0880F991F21
:100140006A95E2F78095822387BB089524B381E006
:1001500090E002C0880F991F6A95E2F7809582238C
:1001600084BB089521B381E090E002C0880F991FFD
:100170006A95E2F78095822381BB0895813089F0EA
:1001800028F08230C9F0833011F108952AB381E05C
:1001900090E002C0880F991F6A95E2F7822B8ABB14
:1001A000089527B381E090E002C0880F991F6A95F7
:1001B000E2F7822B87BB089524B381E090E002C070
:1001C000880F991F6A95E2F7822B84BB089521B3AB
:1001D00081E090E002C0880F991F6A95E2F7822BB8
:1001E00081BB0895843008F073C0683008F070C097
:1001F000442319F04130C9F10895813091F028F07D
:100200008230D9F0833029F108952BB381E090E05A
:1002100002C0880F991F6A95E2F7809582238BBBF5
:10022000089528B381E090E002C0880F991F6A9575
:10023000E2F78095822388BB089525B381E090E0A2
:1002400002C0880F991F6A95E2F78095822385BBCB
:10025000089522B381E090E002C0880F991F6A954B
:10026000E2F78095822382BB0895813089F028F0DF
:100270008230C9F0833011F108952BB381E090E012
:1002800002C0880F991F6A95E2F7822B8BBB0895F5
:1002900028B381E090E002C0880F991F6A95E2F7C9
:1002A000822B88BB089525B381E090E002C0880FBF
:1002B000991F6A95E2F7822B85BB089522B381E0EE
:1002C00090E002C0880F991F6A95E2F7822B82BBEB
:1002D00008958430A8F5683098F5813089F028F0C9
:1002E0008230C9F0833011F12BC029B381E090E056
:1002F00002C0880F991F6A95E2F7922F982320C0B9
:1003000026B381E090E002C0880F991F6A95E2F75A
:10031000922F982315C023B381E090E002C0880F8C
:10032000991F6A95E2F7922F98230AC020B381E0C3
:1003300090E002C0880F991F6A95E2F7922F9823E8
:10034000892F08958430A8F5683098F5813089F0B8
:1003500028F08230C9F0833011F108952BB381E089
:1003600090E002C0880F991F6A95E2F782278BBB45
:10037000089528B381E090E002C0880F991F6A9524
:10038000E2F7822788BB089525B381E090E002C0A0
:10039000880F991F6A95E2F7822785BB089522B3DB
:1003A00081E090E002C0880F991F6A95E2F78227EA
:1003B00082BB0895843060F4683050F4442329F0FF
:1003C000413031F40E94F200089540E00E94F200B2
:0603D0000895F894FFCF30
:00000001FF
