:100000000C942A000C9434000C9434000C943400AA
:100010000C9434000C9434000C9434000C94340090
:100020000C9434000C9434000C9434000C94340080
:100030000C9434000C9434000C9434000C94340070
:100040000C9434000C9434000C9434000C94340060
:100050000C94340011241FBECFE5D8E0DEBFCDBF25
:100060000E9436000C9417010C94000082E00E945C
:100070006000C0E00FC041E06C2F82E00E9466008B
:100080002FEF84E39CE0215080409040E1F700C0D6
:100090000000CF5FC8307CF3C7E00FC040E06C2F9A
:1000A00082E00E9466002FEF84E39CE021508040B4
:1000B0009040E1F700C00000C150CC237CF7D9CFBD
:1000C000843018F461E00E9475000895843060F473
:1000D000683050F4442329F0413031F40E94A000EC
:1000E000089540E00E94A0000895843040F5662302
:1000F00019F0613089F00895813041F028F08230A4
:1001000039F0833039F008951ABA089517BA08956E
:1001100014BA089511BA0895813049F028F0823058
:1001200049F0833051F008958FEF8ABB08958FEF27
:1001300087BB08958FEF84BB08958FEF81BB08952F
:10014000843008F073C0683008F070C0442319F0A0
:100150004130C9F10895813091F028F08230D9F012
:10016000833029F108952BB381E090E002C0880F1D
:10017000991F6A95E2F7809582238BBB089528B377
:1001800081E090E002C0880F991F6A95E2F78095A0
:10019000822388BB089525B381E090E002C0880FD8
:1001A000991F6A95E2F78095822385BB089522B353
:1001B00081E090E002C0880F991F6A95E2F7809570
:1001C000822382BB0895813089F028F08230C9F003
:1001D000833011F108952BB381E090E002C0880FC5
:1001E000991F6A95E2F7822B8BBB089528B381E0B3
:1001F00090E002C0880F991F6A95E2F7822B88BBB6
:10020000089525B381E090E002C0880F991F6A9598
:10021000E2F7822B85BB089522B381E090E002C013
:10022000880F991F6A95E2F7822B82BB0895F89494
:02023000FFCFFE
:00000001FF
