:100000000C942A000C9447000C9447000C94470071
:100010000C9447000C9447000C9447000C94470044
:100020000C9447000C9447000C9447000C94470034
:100030000C9447000C9447000C9447000C94470024
:100040000C9447000C9447000C9447000C94470014
:100050000C94470011241FBECFE5D8E0DEBFCDBF12
:1000600010E0A0E6B0E0EEE8FAE002C005900D92E4
:10007000A239B107D9F720E0A2E9B0E001C01D9292
:10008000A639B207E1F70E949D030C9445050C9434
:100090000000843028F4683018F40E944001982F42
:1000A000892F0895843008F073C0683008F070C05C
:1000B000442319F04130C9F10895813091F028F0BE
:1000C0008230D9F0833029F108952AB381E090E09D
:1000D00002C0880F991F6A95E2F7809582238ABB38
:1000E000089527B381E090E002C0880F991F6A95B8
:1000F000E2F78095822387BB089524B381E090E0E6
:1001000002C0880F991F6A95E2F78095822384BB0D
:10011000089521B381E090E002C0880F991F6A958D
:10012000E2F78095822381BB0895813089F028F021
:100130008230C9F0833011F108952AB381E090E054
:1001400002C0880F991F6A95E2F7822B8ABB089537
:1001500027B381E090E002C0880F991F6A95E2F70B
:10016000822B87BB089524B381E090E002C0880F02
:10017000991F6A95E2F7822B84BB089521B381E031
:1001800090E002C0880F991F6A95E2F7822B81BB2D
:100190000895843008F073C0683008F070C04423BC
:1001A00019F04130C9F10895813091F028F0823082
:1001B000D9F0833029F108952BB381E090E002C09B
:1001C000880F991F6A95E2F7809582238BBB08956B
:1001D00028B381E090E002C0880F991F6A95E2F78A
:1001E0008095822388BB089525B381E090E002C00A
:1001F000880F991F6A95E2F78095822385BB089541
:1002000022B381E090E002C0880F991F6A95E2F75F
:100210008095822382BB0895813089F028F0823056
:10022000C9F0833011F108952BB381E090E002C052
:10023000880F991F6A95E2F7822B8BBB089528B32C
:1002400081E090E002C0880F991F6A95E2F7822B47
:1002500088BB089525B381E090E002C0880F991F04
:100260006A95E2F7822B85BB089522B381E090E086
:1002700002C0880F991F6A95E2F7822B82BB08950E
:10028000843008F05FC0683008F05CC08130E1F075
:1002900030F0823071F1833009F440C053C049B36B
:1002A00081E090E09C01062E02C0220F331F0A94C9
:1002B000E2F7842F90E08223932302C096958795DE
:1002C0006A95E2F7982F3EC046B381E090E09C012A
:1002D000062E02C0220F331F0A94E2F7842F90E00B
:1002E0008223932302C0969587956A95E2F7982F0B
:1002F00029C043B381E090E09C01062E02C0220F8A
:10030000331F0A94E2F7842F90E08223932302C0E4
:10031000969587956A95E2F7982F14C040B381E0CF
:1003200090E09C01062E02C0220F331F0A94E2F7D0
:10033000842F90E08223932302C0969587956A9537
:10034000E2F7982F892F0895CF93DF93843058F5E3
:10035000D42FC82F6623A9F0613029F560E00E94F0
:1003600052004D2F61E08C2F0E9452004D2F62E011
:100370008C2F0E9452004D2F63E08C2F0E94520060
:1003800012C064E00E9452004D2F65E08C2F0E9445
:1003900052004D2F66E08C2F0E9452004D2F67E0D7
:1003A0008C2F0E945200DF91CF910895843008F085
:1003B0004FC0662341F1613009F04AC04F7081306F
:1003C00069F028F0823089F08330B1F008958BB362
:1003D000807F8BBB8BB3482B4BBB089588B3807F4A
:1003E00088BB88B3482B48BB089585B3807F85BB05
:1003F00085B3482B45BB089582B3807F82BB82B30F
:10040000482B42BB08954295407F813069F028F027
:10041000823089F08330B1F008958BB38F708BBB3D
:100420008BB3482B4BBB089588B38F7088BB88B3C0
:10043000482B48BB089585B38F7085BB85B3482B87
:1004400045BB089582B38F7082BB82B3482B42BBF9
:100450000895CF93C82F40E066E080E00E94C90075
:1004600040E065E080E00E94C9004C2F42954F704B
:1004700061E080E00E94D60141E064E080E00E94FB
:10048000C90083EF91E00197F1F700C0000040E060
:1004900064E080E00E94C90083EF91E00197F1F7EA
:1004A00000C0000040E066E080E00E94C90040E03B
:1004B00065E080E00E94C9004C2F61E080E00E946E
:1004C000D60141E064E080E00E94C90083EF91E042
:1004D0000197F1F700C0000040E064E080E00E9476
:1004E000C90083EF91E00197F1F700C00000CF91C0
:1004F0000895CF93C82F41E066E080E00E94C900D4
:1005000040E065E080E00E94C9004C2F42954F70AA
:1005100061E080E00E94D60141E064E080E00E945A
:10052000C90083EF91E00197F1F700C0000040E0BF
:1005300064E080E00E94C90083EF91E00197F1F749
:1005400000C0000041E066E080E00E94C90040E099
:1005500065E080E00E94C9004C2F61E080E00E94CD
:10056000D60141E064E080E00E94C90083EF91E0A1
:100570000197F1F700C0000040E064E080E00E94D5
:10058000C90083EF91E00197F1F700C00000CF911F
:1005900008950F931F93CF938C01C0E003C00E9476
:1005A0007902CF5FF801EC0FF11D80818111F7CF47
:1005B000CF911F910F9108951F93CF93DF93CDB7E4
:1005C000DEB72A970FB6F894DEBF0FBECDBF611518
:1005D000710581059105C1F480E30E9479022AC06A
:1005E0002AE030E040E050E00E942305E1E0F0E046
:1005F000EC0FFD1FE10FF11D605D6083622F732F13
:10060000842F952F1F5F01C010E0611571058105D2
:10061000910531F711500CC0E1E0F0E0EC0FFD1F47
:10062000E10FF11D17FDFA9580810E9479021150AA
:10063000112394F72A960FB6F894DEBF0FBECDBFF4
:10064000DF91CF911F9108958230E0F46031D0F4B2
:10065000882319F0813061F0089580E8860F0E94A8
:10066000290287EA91E60197F1F700C0000008959A
:1006700080EC860F0E94290287EA91E60197F1F744
:1006800000C00000089581E00E94290283EF91E0FC
:100690000197F1F700C0000082E00E94290283EF79
:1006A00091E00197F1F700C00000089541E061E09A
:1006B00080E00E94A40141E066E080E00E945200D8
:1006C00041E065E080E00E94520041E064E080E0AB
:1006D0000E9452008DE292E20197F1F700C0000003
:1006E00082E00E94290289EF90E00197F1F700C0B3
:1006F000000088E20E94290289EF90E00197F1F75B
:1007000000C000008CE00E94290289EF90E0019770
:10071000F1F700C000000E94430383EF91E00197CE
:10072000F1F700C0000086E00E94290289EF90E006
:100730000197F1F700C0000008950E94560341E0C0
:1007400060E081E00E94520041E061E081E00E94AF
:10075000520041E062E081E00E94520041E063E02B
:1007600081E00E94520040E060E083E00E9452007D
:1007700040E061E083E00E94520040E062E083E0FC
:100780000E94520040E063E083E00E94520040E09B
:1007900064E083E00E94520080E690E00E94C9027B
:1007A00060E081E00E9424038BE690E00E94C90291
:1007B0002FEF83ED90E3215080409040E1F700C09F
:1007C00000000E9443032FE78AE196E02150804019
:1007D0009040E1F700C0000060E080E00E94240348
:1007E0008AE790E00E94C9026AE080E00E94240348
:1007F00080E890E00E94C90260E081E00E9424034A
:1008000086E890E00E94C9026AE081E00E94240329
:100810008CE890E00E94C90260E083E00E944900F9
:10082000C82F61E083E00E944900D82F62E083E096
:100830000E944900182F63E083E00E944900082FBE
:1008400064E083E00E944900C13021F58091950069
:100850008F5F8093950041E060E081E00E94C900D5
:1008600064E080E00E9424036091950070E080E0E5
:1008700090E00E94DC022FEF80E792E02150804060
:100880009040E1F700C0000040E060E081E00E949D
:10089000C900CFC0D13021F5809194008F5F809343
:1008A000940041E061E081E00E94C9006EE080E0D8
:1008B0000E9424036091940070E080E090E00E9428
:1008C000DC022FEF80E792E0215080409040E1F77A
:1008D00000C0000040E061E081E00E94C900A9C0C2
:1008E000113021F5809193008F5F8093930041E058
:1008F00062E081E00E94C90064E081E00E9424037C
:100900006091930070E080E090E00E94DC022FEFA5
:1009100080E792E0215080409040E1F700C0000065
:1009200040E062E081E00E94C90083C0013021F50F
:10093000809192008F5F8093920041E063E081E0BC
:100940000E94C9006EE081E00E9424036091920041
:1009500070E080E090E00E94DC022FEF80E792E000
:10096000215080409040E1F700C0000040E063E08B
:1009700081E00E94C9005DC0813009F05AC041E0A9
:1009800060E00E94C90041E061E081E00E94C9008E
:1009900041E062E081E00E94C90041E063E081E063
:1009A0000E94C9001092950010929400109293003A
:1009B000109292000E94430360E080E00E942403B2
:1009C0008AE790E00E94C9026AE080E00E94240366
:1009D00080E890E00E94C90260E081E00E94240368
:1009E00086E890E00E94C9026AE081E00E94240348
:1009F0008CE890E00E94C9022FEF80E792E021503E
:100A000080409040E1F700C0000040E060E081E0FD
:100A10000E94C90040E061E081E00E94C90040E01E
:100A200062E081E00E94C90040E063E081E00E9452
:100A3000C9002FEF81EE94E0215080409040E1F713
:100A400000C00000E9CEA1E21A2EAA1BBB1BFD01CB
:100A50000DC0AA1FBB1FEE1FFF1FA217B307E4079D
:100A6000F50720F0A21BB30BE40BF50B661F771FF5
:100A7000881F991F1A9469F76095709580959095D5
:0E0A80009B01AC01BD01CF010895F894FFCF9A
:100A8E00456C656374726F6E696300566F74696E40
:100A9E0067204D616368696E650041203D2030001E
:100AAE0042203D20300043203D20300044203D2098
:020ABE00300006
:00000001FF
