:100000000C942A000C9434000C9434000C943400AA
:100010000C9434000C9434000C9434000C94340090
:100020000C9434000C9434000C9434000C94340080
:100030000C9434000C9434000C9434000C94340070
:100040000C9434000C9434000C9434000C94340060
:100050000C94340011241FBECFE5D8E0DEBFCDBF25
:100060000E9436000C946A010C94000064E082E067
:100070000E94650062E083E00E94650041E062E06A
:1000800083E00E946D0040E064E082E00E946D0029
:100090002FEF84E39CE0215080409040E1F700C0C6
:1000A000000040E062E083E00E946D0041E064E017
:1000B00082E00E946D002FEF84E39CE0215080409D
:1000C0009040E1F700C00000D9CF843028F46830B8
:1000D00018F441E00E947C000895843060F4683098
:1000E00050F4442329F0413031F40E94F300089584
:1000F00040E00E94F3000895843008F073C0683037
:1001000008F070C0442319F04130C9F108958130DE
:1001100091F028F08230D9F0833029F108952AB384
:1001200081E090E002C0880F991F6A95E2F7809500
:1001300082238ABB089527B381E090E002C0880F34
:10014000991F6A95E2F78095822387BB089524B3AF
:1001500081E090E002C0880F991F6A95E2F78095D0
:10016000822384BB089521B381E090E002C0880F10
:10017000991F6A95E2F78095822381BB08958130AB
:1001800089F028F08230C9F0833011F108952AB344
:1001900081E090E002C0880F991F6A95E2F7822BF8
:1001A0008ABB089527B381E090E002C0880F991FB1
:1001B0006A95E2F7822B87BB089524B381E090E033
:1001C00002C0880F991F6A95E2F7822B84BB0895BD
:1001D00021B381E090E002C0880F991F6A95E2F791
:1001E000822B81BB0895843008F073C0683008F01A
:1001F00070C0442319F04130C9F10895813091F065
:1002000028F08230D9F0833029F108952BB381E0B2
:1002100090E002C0880F991F6A95E2F780958223CB
:100220008BBB089528B381E090E002C0880F991F2E
:100230006A95E2F78095822388BB089525B381E013
:1002400090E002C0880F991F6A95E2F7809582239B
:1002500085BB089522B381E090E002C0880F991F0A
:100260006A95E2F78095822382BB0895813089F0F8
:1002700028F08230C9F0833011F108952BB381E06A
:1002800090E002C0880F991F6A95E2F7822B8BBB22
:10029000089528B381E090E002C0880F991F6A9505
:1002A000E2F7822B88BB089525B381E090E002C07D
:1002B000880F991F6A95E2F7822B85BB089522B3B8
:1002C00081E090E002C0880F991F6A95E2F7822BC7
:0802D00082BB0895F894FFCFF2
:00000001FF
