:100000000C942A000C94C1010C94F1010C9421026F
:100010000C9434000C9434000C9434000C94340090
:100020000C9434000C9434000C9434000C94340080
:100030000C9434000C9434000C9434000C94340070
:100040000C9434000C9434000C9434000C94340060
:100050000C94340011241FBECFE5D8E0DEBFCDBF25
:100060000E9494010C9451020C940000843008F01A
:1000700073C0683008F070C0442319F04130C9F1F2
:100080000895813091F028F08230D9F0833029F141
:1000900008952AB381E090E002C0880F991F6A9505
:1000A000E2F7809582238ABB089527B381E090E030
:1000B00002C0880F991F6A95E2F78095822387BB5B
:1000C000089524B381E090E002C0880F991F6A95DB
:1000D000E2F78095822384BB089521B381E090E00C
:1000E00002C0880F991F6A95E2F78095822381BB31
:1000F0000895813089F028F08230C9F0833011F101
:1001000008952AB381E090E002C0880F991F6A9594
:10011000E2F7822B8ABB089527B381E090E002C00A
:10012000880F991F6A95E2F7822B87BB089524B345
:1001300081E090E002C0880F991F6A95E2F7822B58
:1001400084BB089521B381E090E002C0880F991F1D
:100150006A95E2F7822B81BB0895843008F073C062
:10016000683008F070C0442319F04130C9F1089597
:10017000813091F028F08230D9F0833029F1089550
:100180002BB381E090E002C0880F991F6A95E2F7D7
:10019000809582238BBB089528B381E090E002C054
:1001A000880F991F6A95E2F78095822388BB08958E
:1001B00025B381E090E002C0880F991F6A95E2F7AD
:1001C0008095822385BB089522B381E090E002C030
:1001D000880F991F6A95E2F78095822382BB089564
:1001E000813089F028F08230C9F0833011F1089510
:1001F0002BB381E090E002C0880F991F6A95E2F767
:10020000822B8BBB089528B381E090E002C0880F59
:10021000991F6A95E2F7822B88BB089525B381E088
:1002200090E002C0880F991F6A95E2F7822B85BB88
:10023000089522B381E090E002C0880F991F6A956B
:10024000E2F7822B82BB08958FB780688FBF089535
:10025000863031F0873071F1853009F064C054C0C8
:100260008BB780648BBF623081F018F4613031F05D
:100270000895633089F06430B1F0089585B78260E5
:1002800085BF85B7816085BF089585B7826085BFCA
:1002900085B78E7F85BF089585B78D7F85BF85B76C
:1002A0008E7F85BF089585B78D7F85BF85B78160B7
:1002B00085BF08958BB780688BBF623081F018F4DA
:1002C000613031F00895633089F06430B1F0089501
:1002D00085B7886085BF85B7846085BF089585B779
:1002E000886085BF85B78B7F85BF089585B7877F79
:1002F00085BF85B78B7F85BF089585B7877F85BF0D
:1003000085B7846085BF08958BB780628BBF6130ED
:1003100019F0623029F0089584B7806484BF08958D
:1003200084B78F7B84BF089541E060E082E00E9443
:10033000360041E061E082E00E94360041E062E088
:1003400082E00E9436000E94240161E086E00E9463
:10035000280164E087E00E94280162E085E00E94B5
:10036000280141E060E082E00E94AD0041E061E0F0
:1003700082E00E94AD0041E062E082E00E94AD00B8
:10038000F0CF1F920F920FB60F9211242F933F932D
:100390004F935F936F937F938F939F93AF93BF938D
:1003A000EF93FF9340E060E082E00E94AD002FEF0A
:1003B00083ED90E3215080409040E1F700C00000C1
:1003C000FF91EF91BF91AF919F918F917F916F912D
:1003D0005F914F913F912F910F900FBE0F901F9003
:1003E00018951F920F920FB60F9211242F933F93DF
:1003F0004F935F936F937F938F939F93AF93BF932D
:10040000EF93FF9340E061E082E00E94AD002FEFA8
:1004100083ED90E3215080409040E1F700C0000060
:10042000FF91EF91BF91AF919F918F917F916F91CC
:100430005F914F913F912F910F900FBE0F901F90A2
:1004400018951F920F920FB60F9211242F933F937E
:100450004F935F936F937F938F939F93AF93BF93CC
:10046000EF93FF9340E062E082E00E94AD002FEF47
:1004700083ED90E3215080409040E1F700C0000000
:10048000FF91EF91BF91AF919F918F917F916F916C
:100490005F914F913F912F910F900FBE0F901F9042
:0604A0001895F894FFCF4F
:00000001FF
