S010000054656D705F4144432E7372656357
S11300000C942A000C9447000C9447000C9447006D
S11300100C9447000C9447000C9447000C94470040
S11300200C9447000C9447000C9447000C94470030
S11300300C9447000C9447000C9447000C94470020
S11300400C9447000C9447000C9447000C94470010
S11300500C94470011241FBECFE5D8E0DEBFCDBF0E
S113006010E0A0E6B0E0EEE1FDE002C005900D92E4
S1130070A836B107D9F720E0A8E6B0E001C01D9288
S1130080A836B207E1F70E945C030C948D060C9429
S1130090000087B1806487B987B1806887B987B168
S11300A08E7F87B987B18D7F87B987B18B7F87B9F9
S11300B087B1877F87B987B1806187B987B18F7D21
S11300C087B986B1806886B986B18F7D86B986B1D5
S11300D0877F86B986B1887F86B986B18E7F86B9D7
S11300E086B1826086B986B1846086B9089586B186
S11300F0806486B980E009C086B1807190E09295F1
S113010082958F7089279F7089278823A9F386B1E8
S1130110806186B984B195B10895843008F073C0C4
S1130120683008F070C0442319F04130C9F10895D3
S1130130813091F028F08230D9F0833029F108958C
S11301402AB381E090E002C0880F991F6A95E2F714
S1130150809582238ABB089527B381E090E002C092
S1130160880F991F6A95E2F78095822387BB0895CB
S113017024B381E090E002C0880F991F6A95E2F7EA
S11301808095822384BB089521B381E090E002C06E
S1130190880F991F6A95E2F78095822381BB0895A1
S11301A0813089F028F08230C9F0833011F108954C
S11301B02AB381E090E002C0880F991F6A95E2F7A4
S11301C0822B8ABB089527B381E090E002C0880F98
S11301D0991F6A95E2F7822B87BB089524B381E0C7
S11301E090E002C0880F991F6A95E2F7822B84BBC6
S11301F0089521B381E090E002C0880F991F6A95A9
S1130200E2F7822B81BB0895843008F073C0683014
S113021008F070C0442319F04130C9F108958130C9
S113022091F028F08230D9F0833029F108952BB36E
S113023081E090E002C0880F991F6A95E2F78095EB
S113024082238BBB089528B381E090E002C0880F1D
S1130250991F6A95E2F78095822388BB089525B398
S113026081E090E002C0880F991F6A95E2F78095BB
S1130270822385BB089522B381E090E002C0880FF9
S1130280991F6A95E2F78095822382BB0895813095
S113029089F028F08230C9F0833011F108952BB32E
S11302A081E090E002C0880F991F6A95E2F7822BE3
S11302B08BBB089528B381E090E002C0880F991F9A
S11302C06A95E2F7822B88BB089525B381E090E01C
S11302D002C0880F991F6A95E2F7822B85BB0895A7
S11302E022B381E090E002C0880F991F6A95E2F77B
S11302F0822B82BB0895CF93DF93843058F5D42F9B
S1130300C82F6623A9F0613029F560E00E948D00B2
S11303104D2F61E08C2F0E948D004D2F62E08C2FB9
S11303200E948D004D2F63E08C2F0E948D0012C01F
S113033064E00E948D004D2F65E08C2F0E948D009B
S11303404D2F66E08C2F0E948D004D2F67E08C2F7F
S11303500E948D00DF91CF910895843008F04FC042
S1130360662341F1613009F04AC04F70813069F071
S113037028F0823089F08330B1F008958BB3807F08
S11303808BBB8BB3482B4BBB089588B3807F88BB52
S113039088B3482B48BB089585B3807F85BB85B35C
S11303A0482B45BB089582B3807F82BB82B3482B20
S11303B042BB08954295407F813069F028F0823035
S11303C089F08330B1F008958BB38F708BBB8BB3FE
S11303D0482B4BBB089588B38F7088BB88B3482BD8
S11303E048BB089585B38F7085BB85B3482B45BB47
S11303F0089582B38F7082BB82B3482B42BB0895A9
S1130400CF93C82F40E066E081E00E94040140E001
S113041065E081E00E9404014C2F42954F7061E039
S113042081E00E94AD0141E064E081E00E940401AA
S113043083EF91E00197F1F700C0000040E064E031
S113044081E00E94040183EF91E00197F1F700C07D
S1130450000040E066E081E00E94040140E065E0C5
S113046081E00E9404014C2F61E081E00E94AD0113
S113047041E064E081E00E94040183EF91E0019790
S1130480F1F700C0000040E064E081E00E94040154
S113049083EF91E00197F1F700C00000CF91089538
S11304A0CF93C82F41E066E081E00E94040140E060
S11304B065E081E00E9404014C2F42954F7061E099
S11304C081E00E94AD0141E064E081E00E9404010A
S11304D083EF91E00197F1F700C0000040E064E091
S11304E081E00E94040183EF91E00197F1F700C0DD
S11304F0000041E066E081E00E94040140E065E024
S113050081E00E9404014C2F61E081E00E94AD0172
S113051041E064E081E00E94040183EF91E00197EF
S1130520F1F700C0000040E064E081E00E940401B3
S113053083EF91E00197F1F700C00000CF91089597
S11305400F931F93CF938C01C0E003C00E9450020D
S1130550CF5FF801EC0FF11D80818111F7CFCF91AE
S11305601F910F910895CF93611571058105910530
S113057021F480E30E94500224C06A307105810591
S1130580910558F42AE030E040E050E00E946B0608
S113059080E3860F0E94500214C064367105810501
S11305A0910578F42AE030E040E050E00E946B06C8
S11305B0C62F80E3820F0E94500280E38C0F0E94BA
S11305C05002CF9108958230E0F46031D0F4882352
S11305D019F0813061F0089580E8860F0E940002CE
S11305E087EA91E60197F1F700C00000089580ECD6
S11305F0860F0E94000287EA91E60197F1F700C096
S11306000000089581E00E94000283EF91E00197C9
S1130610F1F700C0000082E00E94000283EF91E045
S11306200197F1F700C00000089541E061E081E026
S11306300E947B0141E066E081E00E948D0041E080
S113064065E081E00E948D0041E064E081E00E9469
S11306508D008DE292E20197F1F700C0000082E084
S11306600E94000289EF90E00197F1F700C00000BA
S113067088E20E94000289EF90E00197F1F700C040
S113068000008CE00E94000289EF90E00197F1F7EE
S113069000C000000E94020383EF91E00197F1F78C
S11306A000C0000086E00E94000289EF90E00197FC
S11306B0F1F700C0000008950E9415030E9449004C
S11306C060E070E082E090E00E941B0461E070E072
S11306D082E090E00E941B0480E690E00E94A00269
S11306E00E947700BC0180E090E00E94470520E072
S11306F030E040E250E40E94DA056B017C0120E026
S113070030E04AE754E40E94D50588230CF458C02D
S113071020E030E04AE754E4C701B6010E94320405
S113072020E030E040E251E40E949F040E94110561
S11307306B017C01EB0167E080E00E94E302B601FB
S1130740DD0C880B990B0E94B3028FED0E945002BE
S1130750C531D1058CF041E050E061E070E082E009
S113076090E00E94230440E050E060E070E082E00A
S113077090E00E942304B4CF2A978CF441E050E027
S113078060E070E082E090E00E94230440E050E0EA
S113079061E070E082E090E00E942304A1CF40E099
S11307A050E060E070E082E090E00E94230440E0CA
S11307B050E061E070E082E090E00E94230490CF7A
S11307C0A701960160E070E08AE794E40E94320495
S11307D020E030E040E251E40E949F040E941105B1
S11307E06B017C01EB0167E080E00E94E3028DE293
S11307F00E94500268E080E00E94E302B601DD0C32
S1130800880B990B0E94B3028FED0E945002DD23E6
S11308104CF041E050E060E070E082E090E00E9443
S113082023045ECF40E050E060E070E082E090E0BE
S11308300E94230455CF843028F4683018F441E032
S11308400E948D000895843060F4683050F444238D
S113085029F0413031F40E940401089540E00E94DF
S1130860040108955058BB27AA270E944A040C94F7
S11308709B050E948D0538F00E94940520F039F400
S11308809F3F19F426F40C948A050EF4E095E7FBD7
S11308900C948405E92F0E94AC0558F3BA1762073B
S11308A073078407950720F079F4A6F50C94CE0518
S11308B00EF4E0950B2EBA2FA02D0B01B901900177
S11308C00C01CA01A0011124FF27591B99F0593FBB
S11308D050F4503E68F11A16F040A22F232F342F03
S11308E04427585FF3CF469537952795A795F04051
S11308F05395C9F77EF41F16BA0B620B730B840B66
S1130900BAF09150A1F0FF0FBB1F661F771F881F1D
S1130910C2F70EC0BA0F621F731F841F48F4879575
S113092077956795B795F7959E3F08F0B0CF939567
S1130930880F08F09927EE0F9795879508950E94E0
S1130940B3040C949B050E94940558F00E948D05F5
S113095040F029F45F3F29F00C94840551110C9464
S1130960CF050C948A050E94AC0568F39923B1F372
S1130970552391F3951B550BBB27AA2762177307C1
S1130980840738F09F5F5F4F220F331F441FAA1F55
S1130990A9F335D00E2E3AF0E0E832D09150504011
S11309A0E695001CCAF72BD0FE2F29D0660F771FBF
S11309B0881FBB1F261737074807AB07B0E809F0A5
S11309C0BB0B802DBF01FF2793585F4F3AF09E3F2A
S11309D0510578F00C9484050C94CF055F3FE4F343
S11309E0983ED4F3869577956795B795F7959F5F6D
S11309F0C9F7880F911D9695879597F90895E1E0B9
S1130A00660F771F881FBB1F621773078407BA0717
S1130A1020F0621B730B840BBA0BEE1F88F7E09572
S1130A2008950E9418056894B1110C94CF05089597
S1130A300E94B40588F09F5798F0B92F9927B751B1
S1130A40B0F0E1F0660F771F881F991F1AF0BA956E
S1130A50C9F714C0B13091F00E94CE05B1E00895F9
S1130A600C94CE05672F782F8827B85F39F0B93FEB
S1130A70CCF3869577956795B395D9F73EF4909521
S1130A808095709561957F4F8F4F9F4F0895E8949F
S1130A9009C097FB3EF490958095709561957F4FC2
S1130AA08F4F9F4F9923A9F0F92F96E9BB27939570
S1130AB0F695879577956795B795F111F8CFFAF480
S1130AC0BB0F11F460FF1BC06F5F7F4F8F4F9F4FB1
S1130AD016C0882311F096E911C0772321F09EE80F
S1130AE0872F762F05C0662371F096E8862F70E075
S1130AF060E02AF09A95660F771F881FDAF7880F4F
S1130B009695879597F9089597F99F6780E870E01F
S1130B1060E008959FEF80EC089500240A9416166F
S1130B20170618060906089500240A9412161306D7
S1130B30140605060895092E0394000C11F4882365
S1130B4052F0BB0F40F4BF2B11F460FF04C06F5F81
S1130B507F4F8F4F9F4F089557FD9058440F551F57
S1130B6059F05F3F71F04795880F97FB991F61F02B
S1130B709F3F79F087950895121613061406551FA2
S1130B80F2CF4695F1DF08C0161617061806991F0E
S1130B90F1CF86957105610508940895E894BB2703
S1130BA066277727CB0197F908950E94470608F432
S1130BB08FEF08950E94ED050C949B050E948D050E
S1130BC038F00E94940520F0952311F00C948405CC
S1130BD00C948A0511240C94CF050E94AC0570F383
S1130BE0959FC1F3950F50E0551F629FF001729FCE
S1130BF0BB27F00DB11D639FAA27F00DB11DAA1FDD
S1130C00649F6627B00DA11D661F829F2227B00D29
S1130C10A11D621F739FB00DA11D621F839FA00DB4
S1130C20611D221F749F3327A00D611D231F849F04
S1130C30600D211D822F762F6A2F11249F5750405B
S1130C409AF0F1F088234AF0EE0FFF1FBB1F661FD6
S1130C50771F881F91505040A9F79E3F510580F09F
S1130C600C9484050C94CF055F3FE4F3983ED4F3D1
S1130C70869577956795B795F795E7959F5FC1F743
S1130C80FE2B880F911D9695879597F90895990FD6
S1130C900008550FAA0BE0E8FEEF16161706E80742
S1130CA0F907C0F012161306E407F50798F0621B63
S1130CB0730B840B950B39F40A2661F0232B242B38
S1130CC0252B21F408950A2609F4A140A6958FEF57
S1130CD0811D811D0895A1E21A2EAA1BBB1BFD01D3
S1130CE00DC0AA1FBB1FEE1FFF1FA217B307E40707
S1130CF0F50720F0A21BB30BE40BF50B661F771F5F
S1130D00881F991F1A9469F760957095809590953E
S1110D109B01AC01BD01CF010895F894FFCF03
S10B0D1E54656D70203D2000B6
S9030000FC
