:100000000C942A000C9447000C9447000C94470071
:100010000C9447000C9447000C9447000C94470044
:100020000C9447000C9447000C94CA040C944700AD
:100030000C9447000C9447000C9447000C94470024
:100040000C9447000C9447000C9447000C94470014
:100050000C94470011241FBECFE5D8E0DEBFCDBF12
:1000600010E0A0E6B0E0E4E3FAE002C005900D92F3
:10007000A839B107D9F720E0A8E9B0E001C01D9286
:10008000A939B207E1F70E9478030C9418050C9483
:100090000000843008F073C0683008F070C044235A
:1000A00019F04130C9F10895813091F028F0823083
:1000B000D9F0833029F108952AB381E090E002C09D
:1000C000880F991F6A95E2F7809582238ABB08956D
:1000D00027B381E090E002C0880F991F6A95E2F78C
:1000E0008095822387BB089524B381E090E002C00D
:1000F000880F991F6A95E2F78095822384BB089543
:1001000021B381E090E002C0880F991F6A95E2F761
:100110008095822381BB0895813089F028F0823058
:10012000C9F0833011F108952AB381E090E002C054
:10013000880F991F6A95E2F7822B8ABB089527B32F
:1001400081E090E002C0880F991F6A95E2F7822B48
:1001500087BB089524B381E090E002C0880F991F07
:100160006A95E2F7822B84BB089521B381E090E089
:1001700002C0880F991F6A95E2F7822B81BB089510
:10018000843008F073C0683008F070C0442319F060
:100190004130C9F10895813091F028F08230D9F0D2
:1001A000833029F108952BB381E090E002C0880FDD
:1001B000991F6A95E2F7809582238BBB089528B337
:1001C00081E090E002C0880F991F6A95E2F7809560
:1001D000822388BB089525B381E090E002C0880F98
:1001E000991F6A95E2F78095822385BB089522B313
:1001F00081E090E002C0880F991F6A95E2F7809530
:10020000822382BB0895813089F028F08230C9F0C2
:10021000833011F108952BB381E090E002C0880F84
:10022000991F6A95E2F7822B8BBB089528B381E072
:1002300090E002C0880F991F6A95E2F7822B88BB75
:10024000089525B381E090E002C0880F991F6A9558
:10025000E2F7822B85BB089522B381E090E002C0D3
:10026000880F991F6A95E2F7822B82BB0895CF937E
:10027000DF93843058F5D42FC82F6623A9F061305E
:1002800029F560E00E9449004D2F61E08C2F0E940B
:1002900049004D2F62E08C2F0E9449004D2F63E0F2
:1002A0008C2F0E94490012C064E00E9449004D2F2B
:1002B00065E08C2F0E9449004D2F66E08C2F0E9434
:1002C00049004D2F67E08C2F0E944900DF91CF91AC
:1002D0000895843008F04FC0662341F1613009F081
:1002E0004AC04F70813069F028F0823089F0833045
:1002F000B1F008958BB3807F8BBB8BB3482B4BBB86
:10030000089588B3807F88BB88B3482B48BB089585
:1003100085B3807F85BB85B3482B45BB089582B3E9
:10032000807F82BB82B3482B42BB08954295407FB9
:10033000813069F028F0823089F08330B1F008957F
:100340008BB38F708BBB8BB3482B4BBB089588B39B
:100350008F7088BB88B3482B48BB089585B38F70D6
:1003600085BB85B3482B45BB089582B38F7082BB94
:1003700082B3482B42BB0895CF93C82F40E067E07B
:1003800080E00E94C00040E066E080E00E94C00083
:100390004C2F42954F7061E080E00E94690141E07E
:1003A00065E080E00E94C00083EF91E00197F1F7E3
:1003B00000C0000040E065E080E00E94C00083EFE4
:1003C00091E00197F1F700C0000040E067E080E0B5
:1003D0000E94C00040E066E080E00E94C0004C2F18
:1003E00061E080E00E94690141E065E080E00E94F8
:1003F000C00083EF91E00197F1F700C0000040E0FA
:1004000065E080E00E94C00083EF91E00197F1F782
:1004100000C00000CF910895CF93C82F41E067E05E
:1004200080E00E94C00040E066E080E00E94C000E2
:100430004C2F42954F7061E080E00E94690141E0DD
:1004400065E080E00E94C00083EF91E00197F1F742
:1004500000C0000040E065E080E00E94C00083EF43
:1004600091E00197F1F700C0000041E067E080E013
:100470000E94C00040E066E080E00E94C0004C2F77
:1004800061E080E00E94690141E065E080E00E9457
:10049000C00083EF91E00197F1F700C0000040E059
:1004A00065E080E00E94C00083EF91E00197F1F7E2
:1004B00000C00000CF9108950F931F93CF938C013C
:1004C000C0E003C00E940C02CF5FF801EC0FF11DE9
:1004D00080818111F7CFCF911F910F9108951F93C4
:1004E000CF93DF93CDB7DEB72A970FB6F894DEBF70
:1004F0000FBECDBF6115710581059105C1F480E383
:100500000E940C022AC02AE030E040E050E00E9445
:10051000F604E1E0F0E0EC0FFD1FE10FF11D605D7E
:100520006083622F732F842F952F1F5F01C010E00F
:10053000611571058105910531F711500CC0E1E09D
:10054000F0E0EC0FFD1FE10FF11D17FDFA95808122
:100550000E940C021150112394F72A960FB6F894BA
:10056000DEBF0FBECDBFDF91CF911F9108958230C6
:10057000E0F46031D0F4882319F0813061F00895FF
:1005800080E8860F0E94BC0187EA91E60197F1F7A7
:1005900000C00000089580EC860F0E94BC0187EA2D
:1005A00091E60197F1F700C0000008950F931F93A3
:1005B000CF938B0190E00896880F880F880F0E94D8
:1005C000BC01C0E007C0F801EC0FF11D80810E9462
:1005D0000C02CF5FC830B8F387EA91E60197F1F7D4
:1005E00000C00000CF911F910F910895CF93C82FA5
:1005F000862F642F0E94B7028C2F0E940C02CF918D
:10060000089581E00E94BC0183EF91E00197F1F72A
:1006100000C0000082E00E94BC0183EF91E00197DE
:10062000F1F700C00000089541E061E080E00E9421
:10063000370141E067E080E00E94490041E066E068
:1006400080E00E94490041E065E080E00E944900AE
:100650008DE292E20197F1F700C0000082E00E9473
:10066000BC0189EF90E00197F1F700C0000088E23B
:100670000E94BC0189EF90E00197F1F700C00000F3
:100680008CE00E94BC0189EF90E00197F1F700C077
:1006900000000E94010383EF91E00197F1F700C091
:1006A000000086E00E94BC0189EF90E00197F1F71D
:1006B00000C0000008950E94B70280E20E940C0270
:1006C0000895843028F4683018F441E00E9449000D
:1006D0000895843060F4683050F4442329F04130A8
:1006E00031F40E94C000089540E00E94C0000895C7
:1006F0000E9414030E94DF0460E770E080E00E9423
:10070000D60268E670E081E00E94D60260E670E002
:1007100082E00E94D60260E070E081E090E00E94FA
:10072000610361E070E081E090E00E94610362E0BB
:1007300070E081E090E00E9461038AE0809378009D
:100740000E94010345E060E080E00E94F60267E05D
:1007500080E00E94B7028BE790E00E945C0261E0BB
:1007600081E00E94B7028EE790E00E945C0224C004
:10077000909198009436C0F081508093780068E0A2
:1007800081E00E94B7026091780070E080E090E024
:100790000E946F02809178008A3020F469E081E045
:1007A0000E945B031092980041E050E062E070E02C
:1007B00081E090E00E946903809178008111D8CF98
:1007C00040E050E062E070E081E090E00E94690368
:1007D00085E0809379000E94010344E060E082E0BC
:1007E0000E94F60266E080E00E94B7028CE890E08A
:1007F0000E945C0261E081E00E94B7028EE790E017
:100800000E945C0224C0909198009436C0F0815000
:100810008093790068E081E00E94B70260917900DE
:1008200070E080E090E00E946F02809179008A3051
:1008300020F469E081E00E945B031092980041E09F
:1008400050E061E070E081E090E00E9469038091F7
:1008500079008111D8CF40E050E061E070E081E0A4
:1008600090E00E9469038AE080937A000E9401036D
:1008700045E060E081E00E94F60267E080E00E94CF
:10088000B70282E990E00E945C0261E081E00E9490
:10089000B7028EE790E00E945C0224C0909198001D
:1008A0009436C0F0815080937A0068E081E00E9425
:1008B000B70260917A0070E080E090E00E946F02E1
:1008C00080917A008A3020F469E081E00E945B0325
:1008D0001092980041E050E060E070E081E090E02C
:1008E0000E94690380917A008111D8CF40E050E0E6
:1008F00060E070E081E090E00E94690385E0809311
:1009000079000E94010344E060E082E00E94F60268
:1009100066E080E00E94B7028CE890E00E945C02F2
:1009200061E081E00E94B7028EE790E00E945C02E5
:1009300024C0909198009436C0F081508093790043
:1009400068E081E00E94B7026091790070E080E089
:1009500090E00E946F02809179008A3020F469E073
:1009600081E00E945B031092980041E050E061E05A
:1009700070E081E090E00E9469038091790081112C
:10098000D8CF40E050E061E070E081E090E00E946C
:100990006903D3CE1F920F920FB60F9211248F933B
:1009A000809198008F5F809398008F910F900FBE79
:1009B0000F901F9018958FB780688FBF089583B7E9
:1009C0008F7B83BF83B7886083BF0E94DB0489B7B6
:1009D000826089BF8EE48CBF83B7816083BF83B799
:1009E0008D7F83BF83B7846083BF0895A1E21A2EF1
:1009F000AA1BBB1BFD010DC0AA1FBB1FEE1FFF1FC3
:100A0000A217B307E407F50720F0A21BB30BE40B12
:100A1000F50B661F771F881F991F1A9469F7609559
:100A20007095809590959B01AC01BD01CF01089513
:040A3000F894FFCF68
:100A3400040E040E15040A110E11151515110E00DD
:100A4400000E151F0E0A11000A050A476F005265B1
:100A54006D61696E202020207365630052656164B6
:080A6400790053746F7000006B
:00000001FF
