:100000000C942A000C9447000C9447000C94470071
:100010000C9447000C9447000C9447000C94470044
:100020000C9447000C9447000C9447000C94470034
:100030000C9447000C9447000C9447000C94470024
:100040000C9447000C9447000C9447000C94470014
:100050000C94470011241FBECFE5D8E0DEBFCDBF12
:1000600011E0A0E6B0E0EEE8FBE002C005900D92E2
:10007000A231B107D9F721E0A2E1B1E001C01D92A0
:10008000A831B207E1F70E945A040C94C5050C94FC
:100090000000843008F073C0683008F070C044235A
:1000A00019F04130C9F10895813091F028F0823083
:1000B000D9F0833029F108952AB381E090E002C09D
:1000C000880F991F6A95E2F7809582238ABB08956D
:1000D00027B381E090E002C0880F991F6A95E2F78C
:1000E0008095822387BB089524B381E090E002C00D
:1000F000880F991F6A95E2F78095822384BB089543
:1001000021B381E090E002C0880F991F6A95E2F761
:100110008095822381BB0895813089F028F0823058
:10012000C9F0833011F108952AB381E090E002C054
:10013000880F991F6A95E2F7822B8ABB089527B32F
:1001400081E090E002C0880F991F6A95E2F7822B48
:1001500087BB089524B381E090E002C0880F991F07
:100160006A95E2F7822B84BB089521B381E090E089
:1001700002C0880F991F6A95E2F7822B81BB089510
:10018000843008F073C0683008F070C0442319F060
:100190004130C9F10895813091F028F08230D9F0D2
:1001A000833029F108952BB381E090E002C0880FDD
:1001B000991F6A95E2F7809582238BBB089528B337
:1001C00081E090E002C0880F991F6A95E2F7809560
:1001D000822388BB089525B381E090E002C0880F98
:1001E000991F6A95E2F78095822385BB089522B313
:1001F00081E090E002C0880F991F6A95E2F7809530
:10020000822382BB0895813089F028F08230C9F0C2
:10021000833011F108952BB381E090E002C0880F84
:10022000991F6A95E2F7822B8BBB089528B381E072
:1002300090E002C0880F991F6A95E2F7822B88BB75
:10024000089525B381E090E002C0880F991F6A9558
:10025000E2F7822B85BB089522B381E090E002C0D3
:10026000880F991F6A95E2F7822B82BB089584302C
:1002700008F05FC0683008F05CC08130E1F030F019
:10028000823071F1833009F440C053C049B381E03A
:1002900090E09C01062E02C0220F331F0A94E2F761
:1002A000842F90E08223932302C0969587956A95C8
:1002B000E2F7982F3EC046B381E090E09C01062E05
:1002C00002C0220F331F0A94E2F7842F90E08223AA
:1002D000932302C0969587956A95E2F7982F29C0D7
:1002E00043B381E090E09C01062E02C0220F331F31
:1002F0000A94E2F7842F90E08223932302C096951C
:1003000087956A95E2F7982F14C040B381E090E09A
:100310009C01062E02C0220F331F0A94E2F7842F9D
:1003200090E08223932302C0969587956A95E2F721
:10033000982F892F0895843060F4683050F4442356
:1003400029F0413031F40E94C000089540E00E943D
:10035000C0000895CF93DF93843058F5D42FC82F71
:100360006623A9F0613029F560E00E9449004D2F15
:1003700061E08C2F0E9449004D2F62E08C2F0E947B
:1003800049004D2F63E08C2F0E94490012C064E0A9
:100390000E9449004D2F65E08C2F0E9449004D2F8F
:1003A00066E08C2F0E9449004D2F67E08C2F0E9441
:1003B0004900DF91CF910895843008F04FC0662343
:1003C00041F1613009F04AC04F70813069F028F086
:1003D000823089F08330B1F008958BB3807F8BBB7E
:1003E0008BB3482B4BBB089588B3807F88BB88B301
:1003F000482B48BB089585B3807F85BB85B3482BC8
:1004000045BB089582B3807F82BB82B3482B42BB39
:1004100008954295407F813069F028F0823089F05C
:100420008330B1F008958BB38F708BBB8BB3482BA7
:100430004BBB089588B38F7088BB88B3482B48BBEB
:10044000089585B38F7085BB85B3482B45BB089550
:1004500082B38F7082BB82B3482B42BB0895E1996F
:10046000FECF8EBB9FBB8CB381608CBB8DB30895D8
:100470008EBB9FBB6DBB8CB384608CBB8CB3826026
:100480008CBB2FEF84E39CE0215080409040E1F74B
:1004900000C00000E199FECF089541E063E082E0F2
:1004A0000E94490041E064E082E00E94490041E08E
:1004B00065E082E00E94490041E066E082E00E943F
:1004C000490040E060E082E00E94490040E061E0D5
:1004D00082E00E94490040E062E082E00E94490020
:1004E00041E060E082E00E949B0141E061E082E047
:1004F0000E949B0141E062E082E00E949B0108951E
:10050000EF92FF920F931F93CF93DF93CDB7DEB798
:100510002C970FB6F894DEBF0FBECDBF8CE0E0E69F
:10052000F0E0DE01119601900D928A95E1F7EE243C
:10053000EA94F12C3AC041E063E082E00E94C000FE
:1005400041E064E082E00E94C00041E065E082E0BA
:100550000E94C00041E066E082E00E94C00040E0EE
:1005600063E06F0D82E00E94C00010E019C0612FAF
:1005700082E00E943701082F811111C08F2D90E079
:10058000FC01EE0FFF1FE80FF91F81E090E08C0FD8
:100590009D1FE80FF91FE10FF11DE08003C01F5FF1
:1005A000133028F3002321F0F39493E09F1518F6FD
:1005B0008E2D2C960FB6F894DEBF0FBECDBFDF9107
:1005C000CF911F910F91FF90EF900895CF93C82F77
:1005D00040E066E080E00E94C00040E065E080E02E
:1005E0000E94C0004C2F42954F7061E080E00E9455
:1005F000DC0141E064E080E00E94C00083EF91E014
:100600000197F1F700C0000040E064E080E00E9444
:10061000C00083EF91E00197F1F700C0000040E0D7
:1006200066E080E00E94C00040E065E080E00E945B
:10063000C0004C2F61E080E00E94DC0141E064E0FA
:1006400080E00E94C00083EF91E00197F1F700C0C5
:10065000000040E064E080E00E94C00083EF91E091
:100660000197F1F700C00000CF910895CF93C82FF4
:1006700041E066E080E00E94C00040E065E080E08C
:100680000E94C0004C2F42954F7061E080E00E94B4
:10069000DC0141E064E080E00E94C00083EF91E073
:1006A0000197F1F700C0000040E064E080E00E94A4
:1006B000C00083EF91E00197F1F700C0000041E036
:1006C00066E080E00E94C00040E065E080E00E94BB
:1006D000C0004C2F61E080E00E94DC0141E064E05A
:1006E00080E00E94C00083EF91E00197F1F700C025
:1006F000000040E064E080E00E94C00083EF91E0F1
:100700000197F1F700C00000CF9108950F931F9358
:10071000CF938C01C0E003C00E943603CF5FF80185
:10072000EC0FF11D80818111F7CFCF911F910F91B7
:1007300008951F93CF93DF93CDB7DEB72A970FB6F7
:10074000F894DEBF0FBECDBF61157105810591051F
:10075000C1F480E30E9436032AC02AE030E040E082
:1007600050E00E94A305E1E0F0E0EC0FFD1FE10F77
:10077000F11D605D6083622F732F842F952F1F5FA3
:1007800001C010E0611571058105910531F7115027
:100790000CC0E1E0F0E0EC0FFD1FE10FF11D17FDD3
:1007A000FA9580810E9436031150112394F72A96FE
:1007B0000FB6F894DEBF0FBECDBFDF91CF911F9172
:1007C00008958230E0F46031D0F4882319F081304C
:1007D00061F0089580E8860F0E94E60287EA91E6BC
:1007E0000197F1F700C00000089580EC860F0E9489
:1007F000E60287EA91E60197F1F700C0000008954C
:1008000081E00E94E60283EF91E00197F1F700C0DA
:10081000000082E00E94E60283EF91E00197F1F789
:1008200000C00000089541E061E080E00E94AA015C
:1008300041E066E080E00E94490041E065E080E040
:100840000E94490041E064E080E00E9449008DE29E
:1008500092E20197F1F700C0000082E00E94E602F8
:1008600089EF90E00197F1F700C0000088E20E9454
:10087000E60289EF90E00197F1F700C000008CE0FC
:100880000E94E60289EF90E00197F1F700C00000B6
:100890000E94000483EF91E00197F1F700C000008F
:1008A00086E00E94E60289EF90E00197F1F700C030
:1008B00000000895FF920F931F93CF93DF930E9440
:1008C00013040E944D028CE690E00E94860360E0D3
:1008D00081E00E94E10389E790E00E9486032FEF08
:1008E00083ED90E3215080409040E1F700C000008C
:1008F0000E94000480E090E00E942F028F3F91054B
:1009000009F047C08AE890E00E948603D0E023C047
:100910000E948002C82F8F3FD9F36D2F81E00E9483
:10092000E1038C2F0E9436032FEF84E39CE02150DB
:1009300080409040E1F700C000006D2F81E00E94F0
:10094000E1038AE20E9436038D2F90E06C2F01961E
:100950000E943802DF5FD630D8F260E080E090E09D
:100960000E9438020E9400048BE990E00E948603F6
:1009700060E081E00E94E10388EA90E00E94860343
:100980002FEF89E698E1215080409040E1F700C0C8
:10099000000002E0F12CCCC00E94000481EB90E04A
:1009A0000E94860310E024C0C12FD0E00E94800284
:1009B000FE01EE5EFE4F80838F3FB1F3612F81E039
:1009C0000E94E103CE5EDE4F88810E9436032FEF46
:1009D00084E39CE0215080409040E1F700C000009B
:1009E000612F81E00E94E1038AE20E9436031F5FCB
:1009F0001630D0F281E090E00E942F022091120187
:100A000030E08217930709F043C082E090E00E9433
:100A10002F022091130130E082179307C9F583E07C
:100A200090E00E942F022091140130E0821793077A
:100A300079F584E090E00E942F022091150130E0CA
:100A40008217930729F585E090E00E942F022091FC
:100A5000160130E082179307D9F486E090E00E94F7
:100A60002F022091170130E08217930789F40E942A
:100A700000048FEB90E00E94860360E081E00E941A
:100A8000E1038EEC90E00E948603FF24F39450C0B3
:100A90000150F1F00E9400048AED90E00E9486036C
:100AA00060E081E00E94E10389EE90E00E9486030D
:100AB000602F70E080E090E00E9499032FEF89E6BC
:100AC00098E1215080409040E1F700C0000030C024
:100AD0000E9400048AED90E00E94860360E081E0BD
:100AE0000E94E10387EF90E00E9486030E940004C9
:100AF00083E091E00E94860360E081E00E94E103D0
:100B0000C0E014C06C2F70E06F5F7F4F072E000CA9
:100B1000880B990B0E9499032FEF89E698E12150E9
:100B200080409040E1F700C00000CF5FC53050F337
:100B3000FF2009F431CF80E090E0DF91CF911F9149
:100B40000F91FF900895A1E21A2EAA1BBB1BFD0175
:100B50000DC0AA1FBB1FEE1FFF1FA217B307E4079C
:100B6000F50720F0A21BB30BE40BF50B661F771FF4
:100B7000881F991F1A9469F76095709580959095D4
:0E0B80009B01AC01BD01CF010895F894FFCF99
:100B8E003132333435363738392A3023536166657E
:100B9E002050726F6A65637400456E672F4D6F73D8
:100BAE007461666153616D697200534554204E4500
:100BBE00572050415353574F5244005041535357AF
:100BCE004F524420484153004245454E2053455410
:100BDE00004348454B2050415353574F5244005207
:100BEE00494748542050415353574F524400536184
:100BFE006665204F50454E45440057524F4E472094
:100C0E0050415353574F5244005452494553204C70
:100C1E00454654203A20005341464520434C4F53FD
:100C2E00454400574149542035205345434F4E44C7
:020C3E000000B4
:00000001FF
